:020000040800F2
:1000000020940020250300083F1400082F03000857
:1000100039140008970800084D220008000000006D
:100020000000000000000000000000008D02000839
:10003000A908000800000000D1020008D11E000835
:100040003F0300083F0300083F0300083F03000888
:100050003F0300083F0300083F0300083F03000878
:100060003F0300083F0300083F0300083F03000868
:100070003F0300083F0300083F0300083F03000858
:100080003F0300083F0300083F0300083F03000848
:100090003F0300083F0300083F030008AD110008BC
:1000A0003F0300083F0300083F0300083F03000828
:1000B0003F0300083F0300083F0300083F03000818
:1000C0003F0300083F0300083F0300083F03000808
:1000D0003F0300083F0300083F0300083F030008F8
:1000E0003F0300083F030008000000003F03000832
:1000F0003F0300083F0300083F0300083F030008D8
:100100003F0300083F0300083F0300083F030008C7
:100110003F0300083F0300083F0300083F030008B7
:100120003F0300083F0300083F0300083F030008A7
:100130003F030008FD0A00083F0300083F030008D2
:100140003F0300083F0300083F0300083F03000887
:100150003F0300083F0300083F0300083F03000877
:100160003F0300083F0300083F0300083F03000867
:100170003F0300083F0300083F0300083F03000857
:100180003F0300083F0300083F0300083F03000847
:100190003F0300083F0300083F0300083F03000837
:1001A00000F002F800F062F80AA090E8000C824427
:1001B0008344AAF10107DA4501D100F057F8AFF204
:1001C000090EBAE80F0013F0010F18BFFB1A43F035
:1001D0000103184728860000488600000A444FF0B3
:1001E000000C10F8013B13F0070408BF10F8014B96
:1001F0001D1108BF10F8015B641E05D010F8016BDB
:10020000641E01F8016BF9D113F0080F1EBF10F83E
:10021000014BAD1C0C1B09D16D1E58BF01F801CB61
:10022000FAD505E014F8016B01F8016B6D1EF9D5E4
:100230009142D6D3704700000023002400250026F9
:10024000103A28BF78C1FBD8520728BF30C148BF39
:100250000B607047642900F0B980782900F0F280C3
:10026000002070471FB51FBD10B510BD00F0DAFAB1
:100270001146FFF7F7FF04F0EDFB00F0F8FA03B4C6
:10028000FFF7F2FF03BC00F0FFFA0000224B1968F1
:100290000868B0E8F00F80F30988BFF36F8F4FF064
:1002A000000080F311884EF00D0E70470000000032
:1002B00006480068006880F3088862B661B6BFF33C
:1002C0004F8FBFF36F8F00DF00BF00BF08ED00E06E
:1002D000EFF30980BFF36F8F0F4B1A6820E9F00F1F
:1002E000106008B54FF0BF0080F31188BFF34F8F47
:1002F000BFF36F8F07F0D6FF4FF0000080F3118837
:10030000BDE8084019680868B0E8F00F80F3098874
:10031000BFF36F8F704700BF68000020EFF30580C8
:10032000704700000948804709480047FEE7FEE79C
:10033000FEE7FEE7FEE7FEE7FEE7FEE7FEE7FEE795
:1003400004480549054A064B70470000792000081B
:10035000A1010008208E0020209400202090002081
:10036000209000200FB4044910B503AA029800F0B1
:100370002BFA10BC5DF814FB3800002070B5044661
:1003800085690068C10601D5302600E02026C00737
:1003900007D070BDD4E9012130469047206A401C47
:1003A00020626D1EF6D570BD70B504468569007873
:1003B000C00707D170BDD4E9012120209047206AF1
:1003C000401C20626D1EF6D570BD00002DE9F04185
:1003D0000646002410687529314616A510D0AFF3E3
:1003E0000080002802DA404213A507E031688A073E
:1003F00001D512A502E0490704D511A5012401E0A9
:10040000AFF3008000210A2206F1240709E0B0FBC7
:10041000F2FCB0FBF2F302FB1C00303078541846BB
:10042000491C0028F3D123462A463046BDE8F04156
:1004300000F071B9000000002D0000002B0000004A
:100440002000000070B504460D4621461068AFF349
:1004500000802188090502D50F4A7A4402E00E4A3D
:100460007A440E32002104F1240305E000F00F0667
:100470000009965D5E54491C0028F7D120780023BE
:10048000000704D5702D02D009B102231132204695
:10049000BDE8704000F03FB9EA8200002DE9F05F4E
:1004A000894604464FF0000ADFF824B1FB44C0F847
:1004B00020A02046E168884700287DD0252806D066
:1004C000D4E901219047206A401C2062F1E7002511
:1004D0005F462046E16888472028064607DB312E24
:1004E00005D2B81910F8200C08B10543F1E7A807A8
:1004F00001D525F00405C4F81CA00027C4F818A0F5
:100500002A2E09D0304602F0F5FF38B304EB8708F5
:10051000303EC8F8186019E059F8041B204604EB77
:1005200087029161E1688847012F064618D1E0698A
:10053000002820DA25F020051DE0D8F8180000EB8F
:10054000800006EB40003038C8F818002046E1680B
:100550008847064602F0CEFF0028EED1012F0AD0D0
:100560002E2E08D12046E16888477F1C0646022FC0
:1005700045F02005C4DBA069002803DA404245F0BD
:100580000105A061E80701D025F01005A6B1A6F18C
:100590004100192802D8203645F400654A46314604
:1005A000204625604D46FFF755FE60B1012807D073
:1005B000ED1D25F0070000E007E000F1080978E7ED
:1005C00005F1040975E730467AE7206ABDE8F09F37
:1005D000C0820000032A40F2308010F0030C00F0CB
:1005E000158011F8013BBCF1020F624498BF11F86D
:1005F00001CB00F8013B38BF11F8013BA2F1040226
:1006000098BF00F801CB38BF00F8013B11F003039D
:1006100000F02580083AC0F0088051F8043B083A01
:1006200051F804CBA0E80810F5E7121D5CBF51F8A3
:10063000043B40F8043BAFF30080D20724BF11F81D
:10064000013B11F801CB48BF11F8012B24BF00F882
:10065000013B00F801CB48BF00F8012B704710B5F3
:10066000203AC0F00B80B1E81850203AA0E81850AA
:10067000B1E81850A0E81850BFF4F5AF5FEA027C6B
:1006800024BFB1E81850A0E8185044BF18C918C0DA
:10069000BDE810405FEA827C24BF51F8043B40F87B
:1006A000043B08BF7047D20728BF31F8023B48BF60
:1006B00011F8012B28BF20F8023B48BF00F8012B9E
:1006C00070474FF0000200B5134694469646203915
:1006D00022BFA0E80C50A0E80C50B1F12001BFF4FB
:1006E000F7AF090728BFA0E80C5048BF0CC05DF861
:1006F00004EB890028BF40F8042B08BF704748BFAF
:1007000020F8022B11F0804F18BF00F8012B704722
:100710007047704770472DE9F0470D46994692465D
:10072000044600F124080168880604D5E06921F038
:100730001001216000E00120A84201DD471B00E01C
:100740000027A1697A1902EB0900081AA061207834
:10075000C00602D42046FFF711FE002608E0D4E9C7
:1007600001211AF806009047206A401C761C20627E
:100770004E45F4DB2078C0060AD52046FFF7FEFD83
:1007800006E0D4E9012130209047206A401C206215
:10079000381EA7F10107F4DC07E0D4E9012118F8BD
:1007A00005009047206A401C2062281EA5F1010523
:1007B000F3DC2046FFF7F8FD2078000602D5022082
:1007C000BDE8F0870120FBE7074B70B50D467B4481
:1007D00000F011F80446284600F020F810B14FF060
:1007E000FF3070BD204670BD0336000001694A1C11
:1007F00002610878704700B58FB0CDE90131002162
:10080000059105497944CDE9031011466846FFF783
:1008100045FE0FB000BD0000E5FFFFFF007B00F0CC
:1008200080007047754600F02BF8AE46050069461B
:10083000534620F00700854618B020B5FFF780FD2D
:10084000BDE820404FF000064FF000074FF00008D1
:100850004FF0000B21F00701AC46ACE8C009ACE852
:10086000C009ACE8C009ACE8C0098D46704710B5B6
:100870000446AFF300802046BDE81040FFF7FFBC00
:1008800000487047C08D002001491820ABBEFEE72C
:1008900026000200704700BFFEE700000148006824
:1008A0007047000004F7FF1F00BFFEE7002100E0D3
:1008B000491C8142FCD37047002100E0491C814261
:1008C000FCD3704730B5AFB0044642F21075012139
:1008D0004FF4E03000F0BEFD01203249088000F006
:1008E0007BFB3148006840F004002F49086000F0AD
:1008F000EFF800F087FB00BF0A20FFF7DDFF681E5E
:1009000080B2051E00D105E02848006800F0010013
:100910000028F1D100BF684600F08EFB4FF4006064
:1009200008900020059001200090002007904FF4CF
:1009300000700A9000200B900E901390119014906C
:10094000159020904FF0007021900011239080208E
:100950002590402026900020289012480188684663
:1009600000F0A6FA2079617940EA01201049086474
:100970002078617840EA0120A17840EA0140E178DE
:1009800040EA01600A4948644FF4001009490860D0
:1009900009480749C1F80C010121084800F016F880
:1009A0002FB030BDC8000020003802400090024047
:1009B000008002401081024020000200C1800180BE
:1009C00001494861704700000090024029B1064A81
:1009D000D2690243044BDA6104E0034AD2698243DC
:1009E000014BDA61704700000090024030B10749C6
:1009F000896941F00201054A916105E0034989696D
:100A000021F00201014A916170470000009002400C
:100A100030B50C46134600210F4D286000BF16E08C
:100A200000EB01124FF0004515604FF48C45556006
:100A300001EB410504EB452595605D1E8D4204D90F
:100A400000EB01151035D56000E0D060491C9942DB
:100A5000E6D3024DE86030BD58000020009002400F
:100A600030B10749896941F40051054A916105E0B7
:100A70000349896921F40051014A916170470000DE
:100A80000090024030B50C46134600210E4D286000
:100A900000BF13E000EB01124FF48015156001EB6D
:100AA000410504EB452595605D1E8D4204D900EBA0
:100AB00001151035D56000E0D060491C9942E9D39A
:100AC000024D286130BD000054000020009002401B
:100AD00010B50121880300F0CDFC00214FF48040C7
:100AE00000F0C8FC10BD00000348806940F480108D
:100AF00001498861704700000090024010B501F084
:100B0000D3FC10BD70B504466420FFF7CFFEFFF79D
:100B1000C5FE1F49086000F053F8E078217948408D
:100B2000617948401B4948431B4908441B490860F8
:100B30002046FFF7C7FE022219491A48FFF7A2FF15
:100B4000072219491948FFF763FF18481849086038
:100B50001448184908603D2000F01F02012191400F
:100B60004209920002F1E022C2F8001100BF002108
:100B7000002807DA0A07150E0F4A00F00F031B1FA3
:100B8000D55403E00A07130E0C4A135400BF70BD7E
:100B9000D000002001440300C99E2600E40000208C
:100BA000B8680020983E0020B83E0020283E002073
:100BB000D4000020D800002018ED00E000E400E0A0
:100BC00008B5002000900121102000F063FC0320F4
:100BD000ADF8000010208DF8030003208DF802000E
:100BE0006946054800F0FAFA012000F007F80120F4
:100BF00000F014F808BD00000010014010B50446D4
:100C0000012C04D10221044800F075FB03E002210D
:100C1000014800F06EFB10BD0010014010B5044605
:100C2000012C04D10121044800F065FB03E00121FF
:100C3000014800F05EFB10BD001001402DE9F041BD
:100C40008CB006460F4690461C462C2101A8FFF7A3
:100C500038FD4FF4C060019040F2B45002904FF460
:100C6000CE6003903220049040F2031005900F48AC
:100C700006900F4807900F4808900F4809900F48BA
:100C80000B9001A801F014FB05461DB128460CB0DD
:100C9000BDE8F081234642463946304601F0F2FD78
:100CA00005462046FFF72EFF2846F0E70120554075
:100CB0001D0C0008FD0B0008E110000878563412E6
:100CC00030B10749096841F00401054A116005E0A7
:100CD0000349096821F00401014A116070470000CE
:100CE0000080024030B10749096841F00801054A17
:100CF000116005E00349096821F00801014A11600B
:100D0000704700000080024070B50521414800880E
:100D100000F098F8054601213E48008800F092F85E
:100D2000044604F0040070B16DB93B48006820F03F
:100D300004003949086001203849087038480068C3
:100D40003849086070BD204602F096F904F00400AE
:100D500000284AD004F02000002846D010212D4859
:100D6000008800F06FF8044604F0040030B12E480B
:100D7000006840F400602C49086010E005F01F0096
:100D8000012806D02848006840F400602649086021
:100D900005E02548006820F40060234908602248E7
:100DA000006820F440402049086004201F49087072
:100DB0001D4840681E4908431B4948601D4800689B
:100DC00040F00100C1F8000100BF1A48006800F0BF
:100DD00001000028F9D10120174908701048006867
:100DE0001649086000F018F90CE00B48006820F084
:100DF0000400094908600120084908700848006893
:100E00000849086008480068C0F3C0200C49087011
:100E100000BF97E7C800002000380240E80000202B
:100E2000CC000020EC00002000800240DD0000200B
:100E30000100008000810240F2000020F400002048
:100E4000F100002018B502460B460021002000905A
:100E50001548016901F01C014FF4784000EAC220F6
:100E600001434FF4F86000EA8310014321F00201CE
:100E700041F001010C48016100BF0098401C009046
:100E80000948016901F0010018B1084C0098A0421E
:100E9000F3D3064C0098A04201D1002018BD0248AF
:100EA000406980B2FAE7000000800240FFFF4F0077
:100EB00070B504460E4600254348056925F01C051B
:100EC00000BF0561056841480540D4E900010843B9
:100ED000A1680843E1680843216908436169084340
:100EE000A1690843E1690843216A0843616A08432C
:100EF000A16A0843E16A0843216B0843616B084318
:100F0000054331480560006840F480102E490860B0
:100F1000D4E90E010843216C0843616C0843A16CBD
:100F20000843E16C0843216D0843616D084326497D
:100F30004860A06D8860E06DC860084685694FF61E
:100F400041700540B4F86010606E40EA0140A16E47
:100F50000843E16E0843216F0843616F084305436E
:100F600019488561D4E91E0108431749C86118482A
:100F7000856918480540D4E920010843D4F8881051
:100F80000843D4F88C100843D4F890100843D4F8E0
:100F900094100843D4F898100843D4F89C100843E0
:100FA000D4F8A01008430543094885614FF4004276
:100FB0000021304600F0C6F808221E21304600F01D
:100FC000C1F8012070BD0000008002400F8120FFA9
:100FD00000900240233FDEF810B5002000F052FBE5
:100FE000102000F06DFB4FF4504000F05DFB01203D
:100FF00000F048FB00BF3D2000F026FB0028FAD09F
:1010000010BD00000348006840F00100014908607D
:10101000704700000090024000B50120FFF762FE1B
:10102000FFF762FD0120FFF74BFE0120FFF718FDDF
:101030000120FFF7DBFC00BD002101604160816001
:10104000C160016141618161C1610162416281628E
:10105000C162016341638163C16340210164202156
:10106000416400218164C164016541658165C16598
:1010700001668021416600218166C1660167416782
:101080008167C1674FF08061C0F880104910C0F8D7
:1010900084100021C0F888104FF40011C0F88C10A3
:1010A0000021C0F89010C0F89410C0F89810C0F853
:1010B0009C10C0F8A0104FF00071C0F8A4100021DF
:1010C000C0F8A8104FF40031C0F8AC104912C0F8B5
:1010D000B0100021C0F8B410C0F8B810704700007C
:1010E000024616480068006800F0004008B1002081
:1010F0007047C2F30C00114B1B6858600F48006822
:1011000081600E480068006840F040500B4B1B683F
:1011100018600A480068006840F00040074B1B68F0
:1011200018600420064B586100205860034800688E
:10113000C068024B18600120DAE70000540000206C
:101140000090024038B503460C4600210020009074
:101150001448016901F01C014FF4784000EAC320F3
:1011600001434FF4F86000EA8410014341F00201AA
:1011700041F001010B484261016100BF0098401C31
:1011800000900848016901F0010018B1064D00986F
:10119000A842F3D3044D0098A84201D3002038BDE3
:1011A0000120FCE700800240FFFF040010B5FFF7BC
:1011B000ABFD802000F002F810BD0000014908607E
:1011C0007047000014040140002803D04042024947
:1011D000C0B2085C70470000108700082DE9F0419C
:1011E000024600250026002000230024002791F855
:1011F00003C00CF00F0591F803C00CF0100CBCF10B
:10120000000F03D091F802C04CEA050591F800C028
:10121000BCF1000F31D0146800202BE04FF0010C1E
:101220000CFA00F3B1F800C00CEA03069E4220D18C
:1012300083004FF00F0C0CFA03F7BC4305FA03FCD4
:101240004CEA040491F803C0BCF1280F06D14FF01A
:10125000010C0CFA00FCC2F814C00AE091F803C0BB
:10126000BCF1480F05D14FF0010C0CFA00FCC2F89C
:1012700010C0401C0828D1D31460B1F800C0BCF1E4
:10128000FF0F34DD546800202EE000F1080C4FF011
:10129000010808FA0CF3B1F800C00CEA03069E42FC
:1012A00021D183004FF00F0C0CFA03F7BC4305FA71
:1012B00003FC4CEA040491F803C0BCF1280F05D1EB
:1012C00000F1080C08FA0CF8C2F8148091F803C079
:1012D000BCF1480F07D100F1080C4FF0010808FAE3
:1012E0000CF8C2F81080401C0828CED35460BDE82A
:1012F000F0814161704701617047000008B500202E
:1013000000900121042000F0C5F80320ADF8000092
:1013100010208DF8030003208DF802006946024872
:10132000FFF75CFF08BD0000000801400549064AC0
:1013300008700020488088801268C1F80620487034
:1013400070470000DC8C0020CC0000200B490A789C
:101350006AB1D1F80620821AB2F57A7F09D3C1F8B2
:1013600006004888052805D30020FFF7DFBFC1F835
:1013700006007047401C488000F066BBDC8C0020F3
:1013800000B503460020FFF7D1FF05482BB101212E
:10139000417004490220C86200BD0021417000BDB7
:1013A000DC8C0020608C002001490120C86370475C
:1013B000608C0020F8B5002506468DF8005069467F
:1013C00000F046FF00280CD09DF8000012490206EC
:1013D00008D500F07F00C0EB001001EB80004563F2
:1013E0000562F8BDC0EB001201EB82040B490978DD
:1013F0008842F6D2E0690328F3D1307C092808D06E
:101400000A2806D04021204602F038F825632562DC
:10141000F8BD1021F7E70000B8740020FC000020A0
:1014200010B5044C60610120C4E90B03C4E90D212F
:1014300010BD0000608C002000BFFEE7704700BFB9
:10144000FEE700000248808AC0F340307047000089
:10145000A48C002029B1064A52690243044B5A6108
:1014600004E0034A52698243014B5A61704700000D
:101470000010024029B1064A926A0243044B9A6264
:1014800004E0034A926A8243014B9A62704700006B
:101490000010024029B1064A92690243044B9A6146
:1014A00004E0034A92698243014B9A61704700004D
:1014B00000100240F0B50021002200250023002684
:1014C00000245B4F7F6807F00C0121B1042905D08F
:1014D00008297ED105E0574F07607DE0554F076032
:1014E0007AE0534F7F6807F47012514F7F6807F41A
:1014F0008035022707EB9242022A00D112220F2ADE
:1015000001D10D220126102A00D10F22112A00D16B
:10151000102265B9484F3F6807F010071FB1454FCB
:10152000574307604FE0454F574307604BE0404F3C
:10153000FF6A07F48037BFB33D4FFF6AC7F3031755
:101540007F1CDFF8F0C0BCFBF7F70760384FFF6A7D
:10155000C7F303242CB9076807EB87077F080760E8
:1015600017E0012C07D1076807EBC70C0CEB071736
:101570007F0807600DE00F2C05D1076807EB870790
:10158000BF00076005E004F1020C076807FB0CF7D9
:101590000760274FD0F800C0FF6A07F00F077F1CD5
:1015A000BCFBF7F707600BE000E012E0204FFF6A9A
:1015B00007F00F077F1CDFF87CC0BCFBF7F7076064
:1015C000076857430760012E02D107687F0807604C
:1015D00002E0184F076000BF00BF154F7F6807F09B
:1015E000F0010909164F7B5C0768DF404760104F28
:1015F0007F6807F4E061090A114F7B5C4768DF40B0
:1016000087600B4F7F6807F46051C90A0C4F7B5C01
:101610004768DF40C760064F7F6807F44041890B89
:10162000084F7B5CC768B7FBF3F70761F0BD0000AC
:101630000010024000127A000038024000093D000C
:10164000400000205000002010B501460022002379
:1016500000204A11012A02D1094C236806E0022A1F
:1016600002D1074C236A01E0054C636A01F01F02B6
:10167000012494401C400CB1012000E0002010BD6A
:101680000010024030B10749096841F08051054A15
:10169000116005E00349096821F08051014A116099
:1016A000704700000010024001460020034AD06A43
:1016B00020F470400843D0627047000000100240E0
:1016C00001460020034AD06A20F0F0000843D062AF
:1016D000704700000010024070B5B0B042F21076C2
:1016E000002500BFAF48406900F4E000B0F5C00F2E
:1016F000F8D100BFAC480078B8B11E21AB480088D3
:10170000FFF7A0FB044604F0010020B124F003041D
:1017100044F0020403E024F0030444F001042246F0
:101720001E21A2480088FFF70DFD00BFFFF76AFCED
:1017300000BF0A20FFF7C0F8701E80B2061E00D15D
:1017400005E09848006800F001000028F1D100BFD2
:1017500001A8FFF771FC4FF400600990002006908B
:1017600001200190002008904FF400700B900020A1
:101770000C900F90129014901590169021904FF0AD
:101780000070229000112490802026904020279005
:10179000002029908648056925F01C0500BF0561D9
:1017A000056884480540DDE90101084303990843C1
:1017B0000499084305990843069908430799084383
:1017C00008990843099908430A9908430B99084363
:1017D0000C9908430D9908430E9908430543744832
:1017E0000560006840F4801071490860DDE90F0170
:1017F000084311990843129908431399084314990F
:101800000843159908431699084369494860179891
:1018100088601898C860084685694FF64170054091
:10182000DDE9191040EA01401B9908431C9908435F
:101830001D9908431E99084305435D488561DDE90C
:101840001F0108435A49C861564885695A480540EE
:10185000DDE9210108432399084324990843259988
:10186000084326990843279908432899084329994A
:10187000084305434B488561504800794F494979F1
:1018800040EA01204A4908644C4800784B494978AD
:1018900040EA01204949897840EA01404749C9782E
:1018A00040EA0160424948644FF40010444908602E
:1018B00044483F49C1F80C0101214348FFF786F82D
:1018C000022242494248FFF7DDF8072241494248D7
:1018D000FFF79EF84048414908603D48404908608C
:1018E0003348006820F40060314908603D480078C2
:1018F00020B10846006840F4006008602C48006889
:1019000020F440402A490860FFF786FB00BF2648C4
:101910000078B8B11E2125480088FFF793FA0446E5
:1019200004F0010020B124F0030444F0020403E0B9
:1019300024F0030444F0010422461E211B480088C1
:10194000FFF700FC00BF1848007808BB00BF4FF449
:101950000042002115480088FFF7F4FB00BF00207B
:101960001149087020490870204908702049087002
:10197000204908702049087008202049087008464E
:1019800002781E2109480088FFF7DCFB00BF00BF7A
:1019900001201B4908701B4800681B49086030B0D3
:1019A00070BD000000900240DD000020C800002053
:1019B000008002400F8120FF233FDEF8000000205E
:1019C0001081024020000200C1800180B868002020
:1019D000983E0020B83E0020283E0020D400002081
:1019E000D8000020F1000020DF000020DE000020F1
:1019F000E1000020F2000020DC000020E0000020D8
:101A0000F0000020CC000020EC0000202DE9F04187
:101A10000C4F0025BC6910E02046FFF7CBFC2046A8
:101A200005F044F8E0680DB1E86000E0B8612146D7
:101A30000220E66803F0C8F93446002CECD1BDE87A
:101A4000F08100002C01002038B5094C00206168AD
:101A5000009160606946204602F080F8009860605E
:101A6000E06800906946204602F078F838BD000032
:101A7000548D002010B500F001F810BD0CB5002009
:101A8000019000902B48006840F48030294908609C
:101A900000BF2848006800F4003000900198401C06
:101AA0000190009818B90198B0F5805FF1D12148F4
:101AB000006800F4003010B10120009001E0002027
:101AC00000900098012833D11A48406819494860AD
:101AD0000846406848600846406840F480604860B6
:101AE0000846406820F47C1048600846406840F48E
:101AF000641048600846006840F08070086000BFCD
:101B00000C48006800F000700028F9D009484068CF
:101B100020F00300074948600846406840F0020092
:101B2000486000BF0348406800F00C000828F9D165
:101B30000CBD0000001002402DE9F05F0446904605
:101B4000D4E9020100EB010A50682669008803F01D
:101B50000BFAC0F3032080004142404603F028FB0B
:101B600010B10020BDE8F09FB8F1000F3DD0A16991
:101B7000E068411AB8F80800814203D2404603F0F9
:101B8000F5FA32E083464546AAEB06076A89D5F89E
:101B90000490BA4210D93A4649463046FEF71AFD3B
:101BA000688909EB0701C61BD4F8089032464846FD
:101BB000FEF710FD4E4409E049463046FEF70AFDA7
:101BC0006889B84201D1A66800E006442D68002D5E
:101BD000DAD1404603F0CAFAA16901EB0B00A0611B
:101BE0002068266140F0040020600120BAE7000070
:101BF0002DE9F74F002416689046214614609EB3E5
:101C0000019A8AB3224AC0EB001002EB8000214FF8
:101C1000D0F830B097F84000800700D4C7244FF4C4
:101C2000B960864200D906468946C82C2DD20022CA
:101C3000B1B2104603F09AF9050024D0C7F83C90E1
:101C4000324668680199FEF7C5FC2946584603F0FC
:101C500042FE8246284603F089FAF86B40B101F053
:101C60000BF9641CA4B2E0E7FFE71A20BDE8FE8F81
:101C7000BAF1000003DABDE8FE4FFFF7A5BA002075
:101C8000C8F80060F2E71120F0E71320EEE700004B
:101C9000B8740020608C00202DE9F05F00261568E4
:101CA00017468A46B0461660ADB1BAF1000F12D0A1
:101CB0002D49C0EB001001EB8000DFF8B0B0D0F888
:101CC000309008F101001FFA80F8B8F1C80F05D96B
:101CD000386880BB40E01A20BDE8F09F99F81000FA
:101CE000042801D01720F7E701F0C6F8B9F87240D0
:101CF00034B1DBF810005A46C10703D1A54201D91F
:101D00001120E9E7A54200D82C465168A14200D233
:101D10000C46C007A2B201D0012300E000235146C7
:101D2000484605F035FF060006D0701C484618D01E
:101D300004F0FCFC10E009E0484604F0F7FC06461D
:101D40003868A244204438602D1B01D10020C3E72D
:101D50009BF81000C007B4D13046BDE8F05FFFF734
:101D600033BA04F0E3FCF3E7B8740020A48C00203D
:101D70002DE9FF4F044681B0D4E9021026695FEADD
:101D8000020901EB000B42D0A169411AB9F8080021
:101D9000814205D205B04846BDE8F04F03F0E6B9F0
:101DA00082464D46ABEB06076A89D5F80480BA42F5
:101DB0000FD93A4641463046FEF70CFC688908EBDD
:101DC0000701C71BA6683A463046FEF703FC3E44AF
:101DD00009E041463046FEF7FDFB6889B84201D173
:101DE000A66800E006442D68002DDBD1484603F0CC
:101DF000BDF9A56B75B10498CDF800A02369016801
:101E000020460E9AA8470020A061A068206105B076
:101E1000BDE8F08FA16901EB0A00A061206826618E
:101E200040F004002060F2E72DE9F74F0024166827
:101E30009046214614609EB3019A8AB3224AC0EBB1
:101E4000001002EB8000214FD0F830B097F840002E
:101E5000800700D4C7244FF4B860864200D30646FA
:101E60008946C82C2DD20022B1B2104603F07EF86C
:101E7000050024D0C7F83C90324668680199FEF707
:101E8000A9FB2946584606F05BF88246284603F02F
:101E90006DF9F86B40B100F0EFFF641CA4B2E0E70D
:101EA000FFE71A20BDE8FE8FBAF1000003DABDE8B3
:101EB000FE4FFFF789B90020C8F80060F2E7112053
:101EC000F0E71320EEE70000B8740020608C0020DB
:101ED00010B500BFBF2080F31188BFF34F8FBFF351
:101EE0006F8F00BF06F08EFA18B14FF08050044992
:101EF000086000BF002080F3118800BF10BD000003
:101F000004ED00E070B50022002000230024002131
:101F1000534D6D6805F00C0222B1042A06D0082A40
:101F200074D107E04F4D504E35608BE04D4D4E4E15
:101F3000356087E04A4D6D6805F47010484D6D6856
:101F400005F48033022505EB9040022800D11220D1
:101F50000F2801D10D200124102800D10F201128B5
:101F600000D1102073B9414D2D6805F0100525B141
:101F70003C4D45433C4E356058E03D4D45433A4E5F
:101F8000356053E0364DED6A05F48035EDB3344DE0
:101F9000ED6AC5F303156D1C324EB6FBF5F5324EF6
:101FA00035602F4DED6AC5F3032131B935462D68F3
:101FB00005EB85056D0835601BE0012909D12A4D27
:101FC0002D6805EBC50606EB05156D08264E356038
:101FD0000FE00F2907D1244D2D6805EB8505AD00D5
:101FE000214E356005E0204D2D688E1C75431E4E38
:101FF00035601B4DED6A05F00F056D1C1A4E3668F5
:10200000B6FBF5F5184E35600BE000E016E0144D18
:10201000ED6A05F00F056D1C124EB6FBF5F5124E7C
:102020003560114D2D6845430F4E3560012C04D1AC
:102030000D4D2D686D080C4E356003E0094D0A4EBC
:10204000356000BF00BF064D6D68C5F30315094E2E
:10205000725D054D2D68D540034E356070BD0000A2
:102060000010024000127A002400002000380240D4
:1020700000093D002800002010B51648006840F017
:102080000100144908600846406813490840114996
:10209000486008460068114908400E490860084633
:1020A000006820F4802008600846406820F4FE00A4
:1020B00048600846006820F0A05008604FF47F0098
:1020C00088600020C862FFF7D5FC4FF0006004492B
:1020D000086010BD001002400000FFF8FFFFF6FE90
:1020E00008ED00E021B1828942F40052828104E0CF
:1020F00082894DF6FF731A408281704702460020A4
:1021000013880B400BB1012000E000207047000055
:102110002DE9F04786B005460E460024A24600BFD2
:10212000A14600272F462C8A4CF6FF700440F08809
:1021300004432C82AC894EF6F3100440B0883189F8
:102140000843718908430443AC81AC8A4FF6FF40D1
:102150000440B0890443AC8201A8FFF7ABF91F48E3
:10216000874202D1DDF810A001E0DDF80CA0A889BB
:1021700000F4004040B10AEBCA0000EB0A103168DD
:102180004900B0FBF1F807E00AEBCA0000EB0A10C7
:1021900031688900B0FBF1F86420B8FBF0F004016D
:1021A0002009642101FB1089A88900F4004040B196
:1021B000322000EBC900B0FBF1F000F0070004434F
:1021C00008E0322000EB09106421B0FBF1F000F0D0
:1021D0000F0004432C8106B0BDE8F08700380140B1
:1021E00010B586B00446012144F20400FFF752F90D
:1021F0004FF40070ADF8140003208DF8160018207D
:102200008DF8170005A90D48FEF7E8FF019400209E
:10221000ADF80800ADF80A00ADF80C00ADF81000FC
:102220000820ADF80E0001A90548FFF771FF012154
:102230000348FFF757FF06B010BD0000000801403B
:1022400000380140C1F308028280704700BFFEE7FA
:1022500030B5164B0022144C1B780CE0C2EB021573
:1022600004EB85052D6B854203D110B199B10A703D
:1022700011E0521CD2B29A42F0D300220FE0C2EB1E
:10228000021504EB85056D6B854206D128B111B1AD
:1022900042F080000870012030BD521CD2B29A4238
:1022A000EDD3002030BD0000B8740020FC000020F9
:1022B00010B50446806A3249884201D0FF2010BD23
:1022C000206A98B144212F48FEF7FBF92D482C21B4
:1022D0004430FEF7F6F92B482C2221464430FEF715
:1022E000BEF928494431486910B128E0092010BDE1
:1022F0002548028843881A448388C08818441044BB
:10230000420B4861D20702D140F400504861820B71
:10231000D20604D120F4F82040F4A0204861C20C79
:10232000D20604D120F4F82040F4A0004861420E07
:10233000D20704D120F0007040F0A0504861C20ED6
:1023400004D120F0784040F080404861486A08B9E4
:102350000E48486248690E49C0F38432322308703F
:1023600008498A61C0F3C4425A43400ECA61C0079B
:1023700003D0086C40F002000864002010BD00008B
:1023800078563412608C0020F08600082D31000849
:10239000FC00002010B590B03C2101A8FEF791F997
:1023A000154800680C90154800880A901448008869
:1023B0000B9013480088401C1149088002200890A7
:1023C00010480078C0EBC00101EB00100E4901EB92
:1023D000801003904FF4B860049001A9094800F000
:1023E000E5FE04460748017808A0FDF7BBFF20463C
:1023F00002F01EFB10B010BD1200002016000020DD
:10240000180000201A000020E00100205743484E29
:1024100045545F536F636B65744372656174202527
:10242000640D0A00F8B50446C4EB04101D4901EB25
:1024300080008068C4EB04111A4A02EB8101C9686C
:102440004618C4EB0410114601EB80004069C4EB50
:10245000041102EB810189690844B04208D9C4EB38
:102460000410114601EB80004069301A009006E02C
:10247000C4EB04100B4901EB800080690090C4EBB1
:102480000410084A02EB80006A464169204600F0C9
:10249000BBFF054625B96A460021204600F05AFFD9
:1024A000F8BD0000B874002010B51D48446904F45C
:1024B0000040B8B104F0800080B11A48007800F004
:1024C000F000102807D1C0061549C96CC96808601A
:1024D0000020134988608020FEF772FA4FF4004014
:1024E000FEF76EFA04F48030C0B104F0400010B181
:1024F0004020FEF765FA04F0010010B10120FEF75C
:102500005FFA04F0004028B1FEF7FEFB4FF00040F8
:10251000FEF756FA4FF48030FEF752FA10BD000075
:1025200000900240D000002000B500F0CBFD024A30
:102530000021D16200BD0000608C0020054A00210E
:1025400005E013780370401C521E4B1CD9B20629BB
:10255000F7DB7047EDF7FF1F014890F82000704748
:10256000608C002008490978884201D30020704718
:10257000064BC0EB001113F82120D0B202F0040288
:1025800043F8212070470000FC000020B8740020B0
:102590001920704770B5FFF7C7FF054605F0010029
:1025A00010B114A0FDF7DEFE05F0020010B116A078
:1025B000FDF7D8FE05F0040040B1FFF7CDFF04465B
:1025C00004F0040010B116A0FDF7CCFE05F01000D9
:1025D00070B100240AE0E0B2FFF7C4FF06461EB166
:1025E000E0B2314600F014F9601C84B2012CF2DB39
:1025F00070BD000047494E545F535441545F554EDF
:1026000052454143480D0A0047494E545F535441D7
:10261000545F49505F434F4E464C490D0A0000003D
:10262000504859204C696E6B205375636365737312
:102630000D0A000010B56448007890B36348006844
:1026400063490968401AB0F5FA7F29D300205E4932
:1026500008706048006840F004005E49086000BFF0
:102660004FF4004200215C480088FEF76BFD00BF7C
:1026700000205A4908705A4908705A4908705A4946
:1026800008705A4908705A4908700820594908705A
:10269000084602781E2150480088FEF753FD00BF0F
:1026A00090E0FFE74D480078002843D100BF4E4836
:1026B000007802280ADA052147480088FEF7C2FBA5
:1026C00000F01F0010B100204B49087000BF3F48C8
:1026D00000683F490968401A47490978884221D370
:1026E00000BF41480078012812D14448006844499D
:1026F0004843444908444149086008460068642149
:10270000B0FBF1F201FB120032303B49087002E0ED
:1027100032203949087000BF2C4800682C490860F5
:1027200000F0F0F83848007800284BD000203649F7
:10273000087047E034480078C0B324480068244952
:102740000968401AFA2831D300202F490870012166
:1027500021480088FEF776FB044604F0040020BB05
:10276000204600F089FC00BF4FF4004200211A48C7
:102770000088FEF7E7FC00BF0020184908701849E0
:1027800008701849087018490870184908701849E5
:102790000870082017490870084602781E210E4864
:1027A0000088FEF7CFFC00BF00BF00BF0F480078D5
:1027B00040B10648006815490968401A642801D3E9
:1027C00000F00EFC10BD0000E8000020CC0000204E
:1027D000EC00002000380240C8000020DD0000208E
:1027E000DF000020DE000020E1000020F2000020D9
:1027F000DC000020E0000020E3000020E4000020D6
:1028000001440300C99E2600F0000020F4000020CF
:1028100070B505460C4604F0040010B12846FFF7D9
:1028200001FE04F0080010B107A0FDF79BFD04F0C5
:10283000100010B10AA0FDF795FD04F0400010B1A2
:102840000CA0FDF78FFD70BD54435020436F6E6E9A
:1028500065637420537563636573730D0A0000002C
:1028600054435020446973636F6E6E6563740D0A40
:10287000000000005443502054696D656F75740D5D
:102880000A0000002DE9F041884607461C4616461E
:1028900018211948FDF715FF184D2068E860A08839
:1028A000288238682860D8F80000686026B130684F
:1028B000A8600024124E0BE0FF2028726872A872F4
:1028C0000020E872F5E7E1B2002000F0FBFD641C97
:1028D00030788442F7DB05F015FD01206862074877
:1028E00044F620617030016043F69821416009216F
:1028F00081600020BDE8F081288D0020608C0020E0
:10290000FC0000202DE9F0410521FE480088FEF77B
:1029100099FA06460121FB480088FEF793FA07461C
:1029200006F01F0000287CD0F748007800284BD123
:102930000120F5490870F549087000BF1E21F148D3
:102940000088FEF77FFA054605F0010020B125F06A
:10295000030545F0020503E025F0030545F00105F8
:102960002A461E21E7480088FEF7ECFB00BF002145
:10297000E4480088FEF766FA044624F0010444F4B3
:10298000007422460021DF480088FEF7DBFB0021AF
:10299000DC480088FEF756FA044640F20320044360
:1029A00022460021D7480088FEF7CCFB00BF00BFBD
:1029B000D74800686421B0FBF1F201FB120032300D
:1029C000D4490870BDE8F081CF480078012805D1CE
:1029D0000220CD4908700020CC490870CE4800780C
:1029E00000F08000002846D1CC480078082837D174
:1029F00000BF1E21C3480088FEF724FA00F0F30050
:102A0000C6490870084602781E21BE480088FEF7B5
:102A100099FB0020C149087000BF0021B948008817
:102A200000E0ABE0FEF70EFA044624F0010444F4A3
:102A3000007422460021B3480088FEF783FB002182
:102A4000B0480088FEF7FEF9044640F20320044334
:102A500022460021AB480088FEF774FB00BF89E0E6
:102A6000AE48007818B98020AB49087082E0802019
:102A7000A94908707EE0AA4801780078401CA84A5D
:102A80001070052976D107F02000002872D1114678
:102A90000870A2480078042835D100BF1E2199484B
:102AA0000088FEF7CFF900F0F3009C490870084653
:102AB00002781E2193480088FEF744FB00209749C6
:102AC000087000BF00218F480088FEF7BBF904465C
:102AD00024F0010444F4007422460021894800884F
:102AE000FEF730FB002187480088FEF7ABF904466B
:102AF00040F2032004432246002182480088FEF76A
:102B000021FB00BF36E000BF1E217E480088FEF793
:102B100099F920F00C00001D8049087008460278E1
:102B20001E2178480088FEF70DFB04207B490870C1
:102B300000BF002173480088FEF784F9044624F0A2
:102B4000010444F40074224600216E480088FEF718
:102B5000F9FA00216B480088FEF774F9044640F248
:102B6000032004432246002166480088FEF7EAFA63
:102B700000BF00BF00206B49087060E16248007828
:102B800001284FD161480078401C60490870084610
:102B9000007808280AD1002008705B4908700822D4
:102BA0001E2158480088FEF7CDFA0BE700BF1E2112
:102BB00054480088FEF746F9054605F0010020B1AB
:102BC00025F0030545F0020503E025F0030545F077
:102BD00001052A461E214B480088FEF7B3FA00BFC4
:102BE000002148480088FEF72DF9044624F001042E
:102BF00044F400742246002142480088FEF7A2FAFD
:102C0000002140480088FEF71DF9044640F20320E9
:102C10000443224600213B480088FEF793FA00BF98
:102C200000BFCFE63C480078802840D13D4801787D
:102C30000078401C3B4A10700F299ED1002011469D
:102C4000087037490870304908703349087000BF70
:102C5000082032490870084602781E212948008859
:102C6000FEF770FA08202D49087000BF00212548A2
:102C70000088FEF7E7F8044624F0010444F40074E9
:102C8000224600211F480088FEF75CFA00211D48FB
:102C90000088FEF7D7F8044640F20320044322469A
:102CA000002118480088FEF74DFA00BFC7E01B4816
:102CB0000078C8BB1B4801780078401C194A107086
:102CC0000429F3D100201146087000BF1E210D48D1
:102CD0000088FEF7B7F820F00C00001D0F490870BF
:102CE000084602781E2107480088FEF72BFA0420C8
:102CF0000A49087000BF002102480088FEF7A2F8C8
:102D0000044612E0C8000020E1000020E20000209C
:102D1000E4000020E3000020DC000020E0000020B0
:102D2000DF000020DE0000201AE024F0010444F45B
:102D300000742246002143480088FEF703FA002170
:102D400040480088FEF77EF8044640F20320044322
:102D5000224600213B480088FEF7F4F900BF6EE0F0
:102D600039480078042840D1384801780078401C60
:102D7000364A10700F2962D100201146087034497C
:102D80000870344908703449087000BF08202E4983
:102D90000870084602781E212A480088FEF7D2F9FA
:102DA00008202949087000BF002126480088FEF746
:102DB00049F8044624F0010444F40074224600213A
:102DC00020480088FEF7BEF900211E480088FEF763
:102DD00039F8044640F203200443224600211948F2
:102DE0000088FEF7AFF900BF29E0184801780078A5
:102DF000401C164A1070642921D100BF4FF40042D4
:102E0000002110480088FEF79DF900BF00201349FB
:102E100008700F4908700D4908700E490870104974
:102E200008700D49087008200749087008460278A4
:102E30001E2104480088FEF785F900BF00BF00BFCF
:102E4000C0E50000C8000020E0000020DE000020F7
:102E5000DF000020E1000020DC000020DD00002079
:102E6000F200002010B500F007F800F00BF8FFF7B3
:102E7000E1FB00F045F910BD014800F021BF000062
:102E8000548D00202DE9F8434D4D28680090FFF740
:102E900063FB40077ED54B4C00982168401A4A4995
:102EA000C969B0EB510F03D90098206004F046FEC9
:102EB000FEF7ACFD454E4FF00009306820B103F03D
:102EC000EDF808B9C6F800900098A1684FF47A763A
:102ED000401AB04203D301F0E5FC0098A0600098CE
:102EE0006168401A41F28831884203D300986060DB
:102EF00000F062FE3648C16841B10099A269891AA2
:102F0000B14203D30099A16140688047314E324FEE
:102F10004EF660283068D0B100982169411A78696E
:102F2000C00E00EB4002C2EBC010B1EB400F04D367
:102F300000982061306900B1804700986169411AAA
:102F4000414504D300986061706900B180470098E2
:102F5000FEF7FCF90098E169411A414503D3FEF7F9
:102F600073FD0098E0611D4E3078002814D0307851
:102F7000800913D03078400618D52868E168401AD7
:102F8000642809D9F96909B1002088472868E060F8
:102F9000802000E000E03070BDE8F883F96909B1F5
:102FA000012088472868E0604020F2E7307800067A
:102FB000F2D52868E168401A6428EDD94846E8E768
:102FC000CC00002004010020608C002000010020C3
:102FD000408D0020288D0020A48C0020F8000020C7
:102FE00010B51E4800681E4908601E48006840BBB6
:102FF0001C4830380068032823D31E211A48008853
:10300000FDF720FF0446C4F3800010B124F00C0447
:1030100001E044F00404A2B21E2113480088FEF728
:1030200091F81048C438006840F001000F49C1F819
:10303000000100BF0B48C438006800F00100002800
:10304000F8D10848006840B10020094908700748D5
:103050004068084908400549486010BDCC00002080
:10306000F4000020C4810240C8000020008002401B
:10307000F2000020FEFFFF7F104910B50862CA6A07
:103080000F4C42F00402CA62A16940070BD509B196
:1030900000208847E16909B100208847BDE8104059
:1030A0000120FEF743B909B101208847E1690029F1
:1030B00003D0BDE810400120084710BD608C0020FF
:1030C000A48C00200D4910B500200A4B0A4A09784B
:1030D0000BE0C0EB001452F8244024B1D86A40F051
:1030E0001000D86203E0401CC0B28842F1D393F8CC
:1030F0002C0010BD608C0020B8740020FC00002063
:1031000010B50748007800F0F000202806D10548E7
:10311000006A0549084008B1FEF7DEFA10BD00005C
:10312000D0000020009002400000FE1F30B51E4A73
:1031300000230360116871B30C68002C07DACC68B7
:103140002568002D2DDB0968002900DA146011685C
:103150000C68002C25DB0C68240415D40C68E405ED
:1031600012D50C68A4050FD50968C1F30D41091FDC
:1031700001600E2907D311680C68A4060CD50968F4
:1031800011F0810F08D0036011684FF000440C600B
:10319000C9681160DCE704E01168896841600120BA
:1031A00030BD002030BD0000D40000202DE9F84FD4
:1031B0000C4601460020087005465F485D4F0078C8
:1031C00007E0C5EB051207EB8202126A1AB16D1C0B
:1031D000EDB28542F5D3854202D32020BDE8F88FB9
:1031E0000D706560DFF85491E0694FF0050A28B171
:1031F000022820D0032869D02120EFE794F8280086
:1032000002F050FB060078D0D9F800000090694623
:10321000304602F009FBE06A00906946304602F051
:1032200008FBC5EB051007EB80024549304602F06C
:103230004FFB26633FE004F073FE5FEA000876D0A0
:10324000E06A00904FF0704001F08CFE009900EAB7
:1032500001064FF0604001F085FE864204D03949F6
:10326000684600F069FF30B1208D374982B2404690
:1032700004F0FAFC11E0D9F800000090208D6946B6
:1032800082B2404604F0F0FC40B9E06A0090A08CA5
:10329000694682B2404604F021FD10B1FDF794FF6B
:1032A0009CE7C5EB051007EB80022849404604F077
:1032B00044FEC4F8308069462248C4F820A000F0DB
:1032C0004DFC2946204600F0FDF82EE003F0AAF957
:1032D0000600A18931862AD0D9F800000090208DFF
:1032E000694682B2304602F057FC5FEA000805D01A
:1032F000304602F0AFFC4046D0E718E0C5EB0510C1
:1033000007EB8001304602F045FC1149304602F0DF
:10331000C1FE2663C4F820A029462046666300F05B
:10332000D1F86946074800F019FC002056E7112043
:1033300054E70000B8740020FC000020608C0020DE
:10334000391B0008548D002034870008711D0008C7
:103350003D1400082DE9F047156891460E4635B337
:103360002849C0EB0010002201EB8004C9F80020BE
:10337000D4E902010144D4E90580A84200D20546FF
:10338000A1EB0807BD4215D92EB13A464146304659
:10339000FDF720F93E44D4F80880EF1B26B13A46E9
:1033A00041463046FDF716F908EB07000EE01A20FB
:1033B000BDE8F08726B12A4641463046FDF70AF9B6
:1033C000BD4201D1A06801E008EB0500C9F800503A
:1033D0006061A069401BA06106D1A06860612061A6
:1033E000206820F004002060E069032807D1E2682B
:1033F000A169206B521A11B991B204F0D1F80020E2
:10340000D6E70000B874002030B40F4BC0EB0014B6
:1034100003EB84031C6A052C04D0002010601720E5
:1034200030BC7047DB69032B04D033B1022B07D0CB
:10343000FA20F5E730BCFEF72FBC30BCFEF7D8BB56
:1034400030BCFEF7F1BC0000B8740020074A30B46D
:103450001378012403B91470054A1268054B1A62E7
:1034600002B91C62044A126A30BC1047F8000020FE
:10347000CC00002004010020A48C002070B502784C
:103480000546082912D006DC01290CD0022909D1F1
:1034900042F0020405E010290BD0402902D142F08D
:1034A00040042C6070BD42F00104FAE742F00804C9
:1034B000F7E7686B42F010040028F2D002F0CAFB74
:1034C000EFE7000070B505460948C1EB011100EBBC
:1034D00081043C212046FDF7F4F825B120463C222A
:1034E0002946FDF7BCF8A0682061606170BD00004E
:1034F000B874002030380A2801D20120704700201B
:10350000704700280BD0026A002A08D0937C082B51
:1035100005D10968926A914201D100F081B87047E3
:1035200070B506000DD0346A74B100224FF49A7160
:10353000104601F01BFD606148B1E27C36494AB19A
:103540000BE06FF0090070BD6FF0080070BD4FF028
:10355000FF3070BD0A68521C0A600968216040682B
:103560000121A0610170A06900254170A1690620B8
:103570008870A069C570206800F06CFCA169486083
:10358000A0690581A0694581A069C560A07C0A2861
:1035900003D0052801D0042802D1A1697068C86051
:1035A000A06900210561A0694561A069856196F85F
:1035B0002800884203D9701890F8290000E0002004
:1035C00001F11C02A369491C89B298541029EED359
:1035D000002000F12C01A269401C80B25554402803
:1035E000F7D3002000F16C01A269401C80B2555451
:1035F0008028F7D3094800F02DFCA169C1F8EC0040
:10360000A5830020A26900F1F0015054401C80B253
:103610004428F7D3002070BD9401002063538263D7
:103620002DE9F843046A05464FF000080C212046B6
:1036300000F0F3F82846FFF773FF060044D101229B
:103640003521204600F05EF80421204600F06AF89B
:1036500004223221204600F055F8A06A01F082FCD5
:103660000146204600F066F804223621204600F08C
:1036700049F8606A01F076FC0146204600F05AF8ED
:1036800007223D21204600F03DF805F129012046A2
:1036900000F071F8204600F0A8F8A08BF03081B25D
:1036A000606901F0B5FDA169A06A4323C8606F6835
:1036B000C5F8048000950B4A6169606804F058FC05
:1036C00028466F6000F010F8E07C40F69F71401CC7
:1036D000E0744FF4FA60B1FBF0F0E0833046BDE8EF
:1036E000F88300003887000810B5002809D0046A64
:1036F000002C06D0606908B101F038FD002060613F
:10370000A06110BD10B5838B84691C445B1C83834E
:1037100084F8F010818B83690B44491C818383F802
:10372000F02010BD828B83691344521C828383F87E
:10373000F010704710B5828B84690B0E1444521C34
:10374000828384F8F030828B84690B0C1444521C01
:10375000828384F8F030828B84690B0A1444521CF3
:10376000828384F8F030828B83691344521C8283F5
:1037700083F8F01010BD10B5828B846901231444C6
:10378000521C828384F8F030828B84690B78144455
:10379000521C828384F8F030828B84694B78144405
:1037A000521C828384F8F030828B84698B781444B5
:1037B000521C828384F8F030828B8469CB78144465
:1037C000521C828384F8F030828B84690B79144414
:1037D000521C828384F8F0304A79818B83690B44D0
:1037E000491C818383F8F02010BD002814D0818B00
:1037F0008369FF220B44491C818383F8F020002257
:1038000005E083690B44491C818383F8F020818B98
:103810004429F6D38B07F4D17047827C8A4202D0C8
:1038200081740021C17470472DE9F84391468846A0
:10383000060072D0B9F80A002A286BD3D9F80450D0
:1038400005F10E04A88900F007FBB0F5014F00D187
:10385000241D012000F000FB218888425AD140F24B
:10386000046000F0F9FAA188884253D14FF4006057
:1038700000F0F2FA618888424CD1D4F80E00009032
:10388000A169706818B1814203D1012702E00027C5
:1038900003E000270FB1012300E0002304F1080238
:1038A0006946304604F0CCFBE08800F0D5FA0128E8
:1038B00002D002282ED121E0FFB1022000F0CCFA84
:1038C000E080D4F80E00A0617068C4F80E000621F4
:1038D000491E11F0FF0104EB0100027A82746A5460
:1038E00018F80120027205EB010218F8010090712E
:1038F000EED1B2694946304690470BE06946304602
:10390000FFF7FFFD0648016821B1C26812B16946A0
:1039100030469047484601F029FCBDE8F883000096
:10392000288D002070B5060019D04C6804F10E05F2
:10393000A08900F091FAB0F5014F00D12D1DB068BB
:10394000E968726801400240914208D10023A21D3B
:1039500005F10C013046BDE8704004F071BB70BD4C
:103960002DE9FC410E46054614460E21304601F075
:103970001FFC18B16FF00100BDE8FC81294620460C
:1039800000F0DAFB08B1234B28E04FF0704001F063
:10399000E9FA216800EA01074FF0604001F0E2FA1D
:1039A000874222D101208DF8000000208DF801000F
:1039B0005E208DF80200206801F0D4FAC0F30640C2
:1039C0008DF80300206801F0CDFA000A8DF804009C
:1039D000206801F0C7FA8DF805006B4605F1290251
:1039E0003146284600F0CCF8C6E7A86821686A6826
:1039F00001400240914203D0E86838B105F10C045F
:103A000032462146284600F007F8B5E76FF003007C
:103A1000B2E700003C8700082DE9F0470D468146DB
:103A200000F1290A16464FF0FF384946284600F0B3
:103A300083FBF8B94FF0704001F094FA296800EA6E
:103A400001044FF0604001F08DFA844212D08DB134
:103A5000286878B10121284600F044F904000BD40D
:103A6000134F786800EB0410817A39B1012907D02F
:103A700036B10DE06FF00900BDE8F08701218172D9
:103A8000FDF792FC2946484600F068F8804666B18A
:103A9000786800EB0413987A022806D15246314622
:103AA00048461B1D00F06CF880464046E4E70000E5
:103AB000840100202DE9F05F9046894683461F4629
:103AC00000222A210320DDF82CA001F04FFA060085
:103AD00040D075680D9805F10E0400F0BDF9E08046
:103AE0000620401E10F0FF0004EB00013A5C0A7251
:103AF0001AF800208A7418F80010295405EB000207
:103B000019F800109171ECD10A980068C4F80E0001
:103B10000C980068A061012000F09EF920804FF40D
:103B2000006000F099F9608040F2046000F094F9C0
:103B3000A08040F6060000F08FF9A881DBF818207D
:103B40005846314690470446304601F00FFB204668
:103B5000BDE8F09F4FF0FF30FAE700001FB50123EA
:103B6000064C021DCDE90213CDE9002400F1290322
:103B70001946A21FFFF79EFF04B010BD4287000840
:103B80002DE9F0414D680E4607460624641E14F0E8
:103B9000FF0405EB0401185D2855105D8871F5D10F
:103BA0004FF4006000F058F9A88131463846BA69F0
:103BB000BDE8F0411047000030B50F4900200F4D1F
:103BC0004C6814E004EB0011CA7A521CD2B2CA72DB
:103BD0008B7A022B02D0012B03D006E0F02A02D20E
:103BE00003E0022A01D300228A72401CC0B2E968B5
:103BF0008142E7D830BD000084010020A48C002061
:103C00002DE9F041446806468846A08900F024F971
:103C10004FF40145A84202D1208A00F01DF9B0F509
:103C2000006F04D0A0F50060063810D118E03146CE
:103C30004046FFF777FE0E27A08900F00DF9A84255
:103C400000D112277942304601F0B2FA18B130465D
:103C500001F08CFA0AE04146304600F021FB05E015
:103C6000324608F129014046FFF7DEFD0020BDE89D
:103C7000F081000010B50E4A4262C161652180F8F2
:103C800033106E2180F834100A4941610A4981617C
:103C90000622044680F8282008492930FCF79AFCBF
:103CA00040F2DC502086332084F83200002010BD22
:103CB000E88C002061390008814900087D8D0020D2
:103CC00070B5054600F02EFE040009D02A69294689
:103CD0009047002804D02046BDE8704001F046BA65
:103CE00070BD00002DE9F04F8E463849DFF8E0B096
:103CF000CB6800215CB2A446DBF8045067468946D5
:103D00008A46B8B39BF8006005EB061292F80A8069
:103D1000B8F1020F36D1D0F800801268904531D149
:103D200070B2BDE8F08FA34203D105EB0112927A85
:103D30003AB105EB0112967A012E04D0022E0FD073
:103D40001EE04CB21CE020B10668D2F80080464567
:103D50000CD0D27A4A4513D34FFA81FC91460FE03A
:103D600048B10668D2F80080464504D18BF80010AF
:103D700048B2D6E706E0D27A524501D34FB2924616
:103D8000491CC9B28B42CED84FF0FF32A34202D1B8
:103D90005FEACE7117D05FEA8E7114D4A34201D9C5
:103DA000E1B207E0BB4201D9F9B203E063450AD9A9
:103DB0000CF0FF0105EB01120024947208B10068B9
:103DC0001060D472D2E71046ABE70000A48C00204C
:103DD0008401002070B504460D4600BF402105480F
:103DE000FEF78CF90028F9D0E1B20248FEF72AFA72
:103DF000204670BD00380140F0B512480021006A2D
:103E000000281ED01048006800281AD0026800253B
:103E10000E4C002A13DA0E4A236A4FF40046176844
:103E2000FF1A642F01D2B14204D9016821F0004188
:103E3000016004E00768002F01DA491CEFE7256202
:103E40008068F0BDA48C00205400002004010020F4
:103E5000CC00002000BA704740BA70470A460321E0
:103E600000F0BCB82DE9FE4F446805468A4620881C
:103E700001F07AF8C0F303204FEA8009C9F100018C
:103E80008846284601F094F900281BD12889042887
:103E900018D369680878032802D0082812D112E0E4
:103EA000084610F8083F028906691B0700EB93607B
:103EB000120A8378C07840EA03244B7821463046C2
:103EC000FDF7AEFA85E001264FF0704001F04AF8A8
:103ED000216900EA01074FF0604001F043F8874292
:103EE00000D10026514604F1100000F025F900B180
:103EF0000026FDF7A7FA00286BD0002E69D028898C
:103F0000082866D3284600F0A6F8002861D12221AF
:103F1000284601F04DF9D0B14946284601F048F94C
:103F200088BB29890022022001F020F8060050D029
:103F3000294601F0D3F830BB41463046746801F0A1
:103F400037F900BB284601F011F9354605E06FF05E
:103F50002101284601F02CF9A8B96E68E0682169B2
:103F6000E1602061002737704FF2FF70FFF774FFA8
:103F700071884FF400628842104605D8FFF76CFF45
:103F80007188401C03E024E0FFF766FF7188084455
:103F90007080208900F0E8FFC0B240F40040FFF7D5
:103FA0005BFF208167811421204600F04EF860817C
:103FB0004946284601F0FCF858B90121CDE90071C5
:103FC00080230022CDF808A004F10C01284600F05F
:103FD00071FA2846BDE8FE4F01F0C8B82DE9FC474C
:103FE00091460E46804600222421012000F0BEFFAB
:103FF000050024D06C68D8F804701C22267084F860
:1040000001900026A680E6806868D8F80410083081
:10401000FCF7E0FA66806989204600F016F86080B7
:104020000120CDE90060802307F10C020021284621
:1040300000F026FA2846BDE8FC4701F097B8BDE835
:10404000FC870A460B21FFF7C9BF10B500F0D2FC70
:10405000C04380B210BD70B500240546264613E06B
:104060006989686800F0C6FC204481B201EB104405
:10407000A87AC00707D0C6F10100C6B2E0B2C4F307
:10408000072141EA00242D68002DE9D126B1E0B2D4
:10409000C4F3072141EA0024E04380B270BD000070
:1040A0002DE9F04788462349DDF820A09946496963
:1040B0001746890E0546C90702D00020BDE8F087E3
:1040C0000024264613E06989686800F093FC2044C8
:1040D00081B201EB1044A87AC00707D0C6F10100F5
:1040E000C6B2E0B2C4F3072141EA00242D68002DD6
:1040F000E9D126B1E0B2C4F3072141EA0024D8F89F
:10410000000081B2214401EB1041386882B21144B1
:1041100001EB10444846FFF79FFE04445046FFF76A
:104120009BFE204481B201EB104000EB1040C043E5
:1041300080B2C3E7A48C00200068421C12D088B172
:1041400091F8322092070BD54A68824208D08968DC
:1041500000EA01030A40934202D10143491C01D005
:1041600000207047012070472DE9F74F86B00446C4
:10417000079814250026B0F8308060680290C08847
:1041800000F0F2FEC0F30C0B00F400500490208904
:10419000143887B2A8F11400C117039000EB5170D6
:1041A000C0F3CF00019073E00398874201DC012047
:1041B00000E00020049ACBF30C0111430091D0B130
:1041C00038461FFA80F900221421022000F0CEFEAA
:1041D0005FEA000A15D01422DAF804000299FCF70D
:1041E000F9F96068DAF80480284460606089401B4F
:1041F00060814D4624E041F4005000900198C000D9
:10420000DFE74FF0FF3009B0BDE8F08F6689AE42BE
:1042100000D92E469EB102220021032000F0A6FE06
:10422000010039D0606848600E814E81504600F030
:104230002FFFA81B05042D0C04D02468E6E7246892
:10424000002DE3D135460098FFF706FEA8F80600DA
:1042500009F1140080B2FFF7FFFDA8F80200002169
:10426000A8F80A1014214046FFF7EFFEA8F80A004C
:1042700007985146089A43699847504600F076FFE0
:10428000A7EB0900019987B20BEB01001FFA80FB35
:10429000002F89D10020B6E7504600F067FFB0E755
:1042A0002DE9F84F4568064688464FF0010B2888EF
:1042B00000F05AFE0421B1EB103F17D1288800F01E
:1042C00053FEC0F303204FF6FF7101EA800A6888AD
:1042D00000F04AFE71890446514507D33089A04257
:1042E00004D351462846FFF7B0FE18B1304600F01F
:1042F0003DFFC0E02146304600F08AFF4FF0010943
:1043000044464FF0704000F02DFE4FF0604000F04A
:1043100029FE05F110000090204600F0C3FDC0B159
:10432000201D16D06068A0B12969814220D02146A5
:104330000098FFF701FFD8B94FF0704000F012FE6F
:10434000296900EA01074FF0604000F00BFE874248
:104350000ED0B9F1000F04D048484FF000090468AE
:1043600000E02468444500D12468002CD4D100E04A
:1043700004BB288900F0F8FDC0B211280BD105EB71
:104380000A00408800F0F0FD442804D15FEA0804E8
:104390004FF0000B0ED1288900F0E6FDC0B21128C5
:1043A00008D105EB0A00408800F0DEFDA0F5E061D1
:1043B0006C392DD0BBF1000F15D0E86898B141469B
:1043C00005F10C00FFF7B8FE00288FD14FF07040C8
:1043D00000F0C8FDE96800EA01074FF0604000F016
:1043E000C1FD874282D0002C80D043F6FF70FFF7DA
:1043F00033FDE988084205D0304600F0C7F80600D2
:1044000039D075684146304601F018FA10B132E0F3
:104410004446E8E7288900F0A7FDC0B2012826D06D
:1044200006281FD01128414618D005F11000FFF7CB
:1044300083FE0028C9D14FF0704000F093FD296938
:1044400000EA01044FF0604000F08CFD8442C9D0C6
:10445000022130467560FFF701FD47E7304603F063
:1044600077FC08E04146304601F090FE03E041460B
:104470003046FFF7F7FC0020BDE8F88FB8010020B8
:104480002DE9FE438146DDE90A541F46164688465B
:10449000104600F023FA50B10095CDE901403B46AB
:1044A00032464146484600F005F8BDE8FE836FF00D
:1044B0000300FAE72DE9F05F1F46DDE90BA55FEA8F
:1044C00002088946064648D04FF0140B594630463C
:1044D00000F06EFE18B16FF00100BDE8F09F746847
:1044E000208900F041FD67F31F20FFF7B5FC208114
:1044F00000F03AFD20F0FF0040EA0A00FFF7ACFCB4
:104500002081D8F8000020610A9880B240F48A40E7
:10451000FFF7A2FC20803089FFF79EFC1A4F6080D5
:104520004FF0000AA4F806A03888FFF795FCA08099
:104530003888401C3880B9F1000F02D0D9F800004B
:1045400010B9281D00D06868E060A4F80AA0594698
:104550002046FFF77AFD608102E0706800F11008E4
:10456000288E48B13189814206D9424629463046D3
:10457000BDE8F05FFFF7F8BD4246314628466B695B
:10458000BDE8F05F18470000DC0100202DE9F14F85
:10459000002600984568288800F0E6FCC0F3032058
:1045A00005287DD1E88800F0DFFCC0044FEA104AFE
:1045B000688800F0D9FC0446288800F0D5FCC0F3D8
:1045C0000320404204EB80001FFA80F9009800F0BD
:1045D0007CFD514907460A88D019504A127CC2F323
:1045E000C40290425CD88846B3464C680DE06069CE
:1045F000E968884207D1A0692969884203D1A08966
:10460000A988884204D026462468002CEFD106E011
:104610002CB1E88800F0A8FCC0041AD024E00520E2
:1046200000F00AFC040012D02021FCF74AF8032015
:10463000E077D8F8041021601422294604F108001C
:10464000C8F80440FBF7C6FF002C5FD00CE05C46C6
:10465000FAE7E08900F088FCC00405D0142229465E
:1046600004F10800FBF7B6FFB8F800103944A8F8C9
:104670000010E88800F078FC800406D4A07F40F0A9
:104680000100A0770AEB0900A0832046009900F002
:1046900047F8002838D0A08B1430A083606800E071
:1046A00034E04768142204F108013D683846FBF7FE
:1046B00091FFA08BFFF7D0FB7880A7F806B0A7F892
:1046C0000AB014213846FFF7C0FC78816FF0130A56
:1046D000D4F8049009E0514628466F6800F068FD60
:1046E0002946484600F0D4FC3D68002DF3D1314600
:1046F000204600F08DF8484600F0E7FCB8F80020AE
:10470000101AA8F800004846BDE8F88F009800F09D
:104710002DFD0020F8E700007C010020A48C002083
:104720002DE9F047D1F8049080460E46002401257B
:10473000B9F8020000F018FC0746B9F8000000F0D4
:1047400013FCC0F30320404207EB8007B9F80600D2
:1047500000F00AFCC0047268030C00201060D81935
:1047600093801FFA80FCA2F806C0D8F804101CE061
:1047700048688788BB420DD211603CB1E788BB42D4
:1047800036D38088844533D8266001E0C8F80460B9
:1047900069B116E02CD0C1888B4229D31CB1E188C5
:1047A000B94200D00025016804460029E0D134B1A7
:1047B0002660E0889188884203D0002501E0C8F88F
:1047C000046098F81E00C0070ED065B1D8F8040048
:1047D0004068808830B9116829B14868D1888288DA
:1047E000914203D000252846BDE8F0870246F2E753
:1047F000304600F06AFC014604480288511A0180E4
:10480000304600F0B3FC0020EEE700007C01002001
:10481000074A30B40B4654680168844201D15160A4
:1048200000E01960014630BC052000F0CDBA000060
:104830007C0100202DE9F041446806468846606806
:104840000025818891B900687060142206F1080182
:104850006068FBF7BFFE01212046FFF7F2FB204610
:1048600000F033FC0546204600F080FC746809E047
:10487000606827460468384600F027FC054438463F
:1048800000F074FC002CF3D141463046FFF7C0FF26
:1048900003490888401B08802846BDE8F0810000D5
:1048A0007C01002070B50C480026354644680FE0B6
:1048B0006D1CEDB2102D0DD8E07F20B1401EE077C9
:1048C0002646246804E0204624683146FFF7B2FFFC
:1048D000002CEDD170BD00007C01002070B50546B4
:1048E0000E4804680DE0204600F0DCFA40B1A068F4
:1048F0002968626801400240914201D1204670BDA2
:104900002468002CEFD1064C206820B100F0CAFAD0
:1049100008B1206870BD002070BD0000B801002003
:10492000BC01002070B51348416A134888471248FB
:10493000016819B1114A137813B103E0002070BD6A
:10494000012313700322456889B2104600F00EFB64
:1049500006000CD00446294662896068FBF73AFEDF
:10496000608924680544002CF5D100F0FDFF304635
:1049700070BD0000A48C00208C010020F8000020F5
:104980002DE9F0410C4600264CF250376FF00B0831
:10499000FDF7E2FD400701D57F1E02D24046BDE88B
:1049A000F081FFF729FA0500F2D0074609E0628995
:1049B00028466168FBF70EFE608924680544304490
:1049C00086B2002CF3D139463046FEF73FFD002079
:1049D000E5E7000010B500F0FFF800F001FA044828
:1049E0008068002802D0BDE81040004710BD0000DC
:1049F000408D002030B4002208E010F8013B1C027A
:104A000010F8013B2343891E1A4489B20129F4D8C6
:104A100011B1007802EB002290B200EB1240010CC1
:104A200002D081B201EB104030BC80B2FFF714BA63
:104A300010B5044604B910BD214602A0FBF792FC54
:104A400000BFF8E74572726F723A20253032580D78
:104A50000A0000001CB5FDF755FA4FF4E130FDF7F0
:104A6000BFFBFDF795FD192802D029A0FBF77AFCC2
:104A70002B48FDF763FD2BA0FBF774FC002406E038
:104A80002748015D2AA0FBF76DFC601CC4B2062C10
:104A9000F6DB28A0FBF766FC27A0FBF763FC204BA6
:104AA000274A28492848FCF7C9F8044627A0FBF7FD
:104AB00059FC2046FFF7BCFF14B926A0FBF752FCB7
:104AC000002403E0FDF766FC601CC4B2012CF9DB96
:104AD000FCF714FC2648062100234FF48072CDE930
:104AE000001024A1254803F05DFC25480521002382
:104AF0004FF48072CDE9001022A1244803F052FC4B
:104B000003F092FB02E022A0FBF72CFCFBE7000085
:104B100076657273696F6E206572726F722E0A000D
:104B2000000000206D616320616464723A0000003F
:104B3000257820000A00000054494D320D0A00007B
:104B40000E0000200A000020060000204C49420D03
:104B50000A0000005743484E45545F4C6962496E55
:104B6000697420537563636573730D0A0000000058
:104B7000200000207461736B32000000BD590008F2
:104B80001C0000207461736B310000007D59000827
:104B900073686F756C646E27742072756E20617413
:104BA000206865726521210A00000000002810D0ED
:104BB00008494A6890420CD38A68904209D2002280
:104BC00000F8042CCA680838904200D2C86000F08F
:104BD0004DBB70479801002030B5114A114B4FF67C
:104BE000FC7410680125C01C20F003005060198976
:104BF000C91C214001800021418001719968C91CB4
:104C000021F00301014491600D711D89ED1C2540C7
:104C10000D801B89DB1C23404B80D06030BD000021
:104C200098010020A48C0020F0B5002850D04FF649
:104C3000FC71C01C00EA01030C2B00D20C23DFF82E
:104C40009CE0DEF80800C01C20F00300984243D32B
:104C5000DFF88CC0DCF80C50DCF80420A91A89B20B
:104C6000C41A37E05018067986BB0688761A083EC3
:104C70009E422ED3048803F11406641A0127083CCF
:104C8000B44215D30B4408339CB2131900261E718D
:104C900006881E805980048007711988DEF8083064
:104CA000DB1C23F00303994203D0931CCC5200E099
:104CB0000771A8420BD1DCE902310C793CB1994271
:104CC00005D009881144CCF80C10F6E701E0083053
:104CD000F0BD515A8C42C5D80020F0BDA48C0020F4
:104CE000980100202DE9F04F4FF6FC72C91C1140CD
:104CF0000C2900D20C21DFF8C890D9F80820D21C6A
:104D000022F003028A4210D32E4E7468A0420ED3C2
:104D1000B26890420BD2A0F10802131B15889BB217
:104D2000EF1A083FBFB2B94203D94FF00000BDE807
:104D3000F08FFCD005EB040C224DB2469CF80480A9
:104D4000EE686D684FF0000B05F10205B8F1000F39
:104D50001BD001F1140CBC45E9D8194408318FB2BD
:104D6000E119B14201D2CAF80C1081F804B01488DC
:104D70000C804B801780D9F808200988D21C22F0BB
:104D800003029142D3D04F53D1E719440831BCF804
:104D9000007089B2664502D16618CAF80C600C44EE
:104DA00084F804B0278063801180D9F80830228805
:104DB000DB1C23F003039A42B9D05153B7E700003C
:104DC000A48C002098010020002905D0034A52F845
:104DD00020300B6042F82010704700008C8D0020BE
:104DE00070B50020401C80B20828FBD3104D114C38
:104DF000A868C01C20F003010020064644F820608B
:104E000000220AE054F820300B6044F820102B6890
:104E1000521C92B233F8103019446B6833F81030DA
:104E20009342EFD8401C80B20828E7D370BD000041
:104E3000A80100208C8D00200146082801D3002005
:104E40007047044A52F821000028F9D0036842F85C
:104E5000213070478C8D00202DE9F041044606A8D2
:104E600090E8E00000206060A060E06084F832001C
:104E7000C4E907500A4D287884F83500401C287092
:104E80002046276100F013F82046B04710B10020FB
:104E9000BDE8F0816868206020466C60F8E700009B
:104EA000B401002090F8320000F00100704770B5A6
:104EB0001D461646044600F015F83146204600F01F
:104EC0004DF829462046BDE8704000F007B80000C4
:104ED0000149886070470000B401002001B10968F1
:104EE000C16070472DE9F04106460C4608687168BC
:104EF0000025884223D0174800680FE001687268D7
:104F000091420AD10121C76800F066FD29466D1C57
:104F10003846EDB2642901D902E0C0680028EDD11D
:104F20000D48006809E007D0016829B17268914214
:104F300002D14CB121680160C0680028F3D134B1BE
:104F400020687060BDE8F0814FF00001F3E74FF09A
:104F50000000F6E7400100203C01002001B1096893
:104F60008160704700BA704740BA70472DE9F0473A
:104F700017460D46002630B1012805D0022804D07E
:104F8000032855D102E0142614360E364FF00109DD
:104F90004FF00008F7B3012F66D0022F64D0032F23
:104FA00046D10720FFF748FF041E42D0A019133056
:104FB000277320F00300C4E90080DFF8D0A025812A
:104FC000F61CDAF8040026F00301393020F0030063
:104FD000401AA84200D9284680B26081A4F80E90F9
:104FE00026462D1A1EE00720FFF726FFE8B10773BB
:104FF00080F80D80C0F80080AAB230600281DAF833
:105000000410393121F003018A4200D2294689B2C5
:10501000418100E00FE000F110024260A0F80E9024
:105020006D1A0646002DDEDC2AE0204600F09EF8D0
:105030000020BDE8F08706F1130020F00301E81C12
:1050400020F00300084480B2FFF7EEFD041EF0D00C
:10505000A019133020F00300606025816581C4F839
:10506000008084F80C800BE00620FFF7E5FE041EAC
:10507000DFD0C4F8048025816581C4F800802773DF
:10508000A4F80E9084F80D802046D2E7A48C00206E
:1050900010B500280FD000290DD004E003890C8939
:1050A0002344038110460268002AF7D102890B8944
:1050B0001A440281016010BD10B50C46FFF7E8FFED
:1050C0002046BDE8104000F0CAB8002102E0491CAB
:1050D0000068C9B20028FAD1084670472DE9F047A8
:1050E0004FF000070C4605003E4604D01CB128894D
:1050F0002189884203D26FF00900BDE8F0876FF084
:10510000080968896189C01B891B884201DB88B254
:1051100000E080B280466068424681196868384481
:10512000FBF758FA07EB080087B206EB080086B2D7
:105130006889B84201D12D6800276089B04201D842
:10514000246800262CB160892189884201D1206819
:1051500030B93DB168892989884203D1286808B1EE
:105160004846CAE7002CCCD10020C6E770B500281D
:1051700015D00024C189491E0904090CC1810DD133
:10518000017B056803290BD001290CD002290AD024
:10519000FFF70CFD641CE4B22800EBD1204670BD83
:1051A0000146072001E001460620FFF70DFEF1E76A
:1051B00010B541B138B1002907DA4A4293B24289A9
:1051C0009A4223D302E0002010BD8BB2027B4468D8
:1051D00032B1032A04D0022A0AD0012A08D015E0ED
:1051E000621A00F1100342609A4208D244600DE056
:1051F00000290BDA42899A4208D3621A4260428936
:105200000A444281028911440181DCE7012010BD7A
:1052100070B502898A4221D98A1A0D46044605E0F2
:10522000281A85B220891044208124686089A84208
:10523000F6D3207B50B96089A84207D0A088001B14
:10524000284481B22046FFF74DFD04466581258143
:10525000206808B1FFF78AFF0020206070BD002899
:1052600002D0C189491CC1817047000030B5134C80
:10527000018862681144931C88420DD00D795DB994
:10528000A568A94208D0E5688D4200D1E0600D888C
:1052900005800988851ACD524188114481420BD07E
:1052A0000D79002D08D1E568854200D1E1600488C0
:1052B0000C800088891AC15230BD0000980100207E
:1052C0002DE9F04105460E46264807682648006845
:1052D000001D02F0F7FE50B92348006890F82C102A
:1052E0000120884021490968814320480160681CE9
:1052F000D8B9D6B11E4948681B49096888601A495F
:1053000082680968CA6018490968091D8268516085
:1053100015490968091D8160154A134909684A61E0
:1053200011460968491C11601AE07C190E48006892
:105330004460BC4207D20C480168091D0D48006852
:1053400002F0E4FE0CE008480168091D0A48006804
:1053500002F0DCFE09480068844201D2074804607C
:10536000BDE8F0817C000020680000208000002063
:10537000140E0020700000206C0000209800002017
:1053800010B5044602F0DCFE2F480068401C2E4990
:1053900008602E48006840B92C4804600846006840
:1053A00001280DD100F024F90AE02948006838B935
:1053B00026480068C06AE16A884201D82348046030
:1053C00024480068401C2349086094F82C100120F0
:1053D00088402149096808431F490860E16A01EBD8
:1053E00081011E4A02EB81014868A0608268E26088
:1053F000211D826851608160E16A01EB8101174AD9
:1054000002EB81026261E16A01EB8101134A52F809
:105410002110491CE26A02EB8202104B43F8221071
:1054200002F0A0FE0A48006868B108480068C06A37
:10543000E16A884207D24FF0805009490860BFF303
:105440004F8FBFF36F8F10BD7800002068000020E1
:10545000840000209400002080000020600D0020C7
:1054600004ED00E010B516E002F06AFE0C48C068DA
:10547000C468201D02F026FE0A480068401E094943
:10548000086009480068401E0749086002F06AFE8B
:10549000204600F00BF8044800680028E4D110BD55
:1054A000000E0020780000207400002010B5044693
:1054B000206B02F067FE204602F064FE10BD000083
:1054C00030B54FF44053174800F007042CB1C01D0D
:1054D00020F00700134C041B1B1B0246124C2260D9
:1054E0000024114D6C60D018083820F007000F4CD4
:1054F000206000240D4D2D686C600C4D2D682C60D3
:105500001146441A4C60094C24680C60084D4C68E4
:105510002C60084D4C682C604FF00044064D2C6008
:1055200030BD0000280E0020A8000020B0000020A0
:10553000B8000020B4000020C400002000BFFFF726
:1055400091FF064800680128F9D94FF080500449BE
:105550000860BFF34F8FBFF36F8FF0E7600D00203F
:1055600004ED00E02DE9FF5F80460E469146DDE93F
:105570000E7A109CA9F10100216B01EB800B2BF03E
:10558000070B86B1002507E0715D04F13400415539
:10559000705D00B902E06D1C102DF5D300BF002135
:1055A0004320015502E0002084F83400052F00D389
:1055B0000427E762201D02F0A6FD04F1180002F0A6
:1055C000A2FD2461C7F10500A0616462002060644F
:1055D00084F8480041465846039A00F013F92060C9
:1055E000BAF1000F01D0CAF80040BDE8FF9F0000EB
:1055F00010B5002407E004EB84010F4A02EB8100A0
:1056000002F074FD641C052CF5D30C4802F06EFD0D
:105610000B4802F06BFD0B4802F068FD0A4802F0EF
:1056200065FD0A4802F062FD044809490860044823
:105630000849086010BD0000600D0020C40D002066
:10564000D80D0020EC0D0020000E0020140E0020CC
:105650006C0000207000002010B50146164800E0E4
:10566000006803688B42FBD30246436813448B42B5
:1056700004D143684C682344436001460A464B68A2
:1056800013440468A34211D10C4C03682468A3425C
:1056900008D04B680468646823444B6003681B6847
:1056A0000B6005E0054B1B680B6001E003680B60B5
:1056B000884200D0016010BDA8000020B00000208A
:1056C00009480068006808B9012000E0002020B106
:1056D0004FF0FF300549086005E003480068C068E6
:1056E00000680249086070476C00002098000020A4
:1056F00000BFBF2080F31188BFF34F8FBFF36F8FC0
:1057000000BF00BFFEE700002DE9F04104464FF066
:10571000000802F0BFFD3548006808B9FFF7D0FE69
:1057200033480068204000285BD1B4B104F1080080
:10573000A04212D9083404F0070078B104F0070041
:10574000C0F108002044A04205D904F00700C0F1D0
:105750000800044402E0002400E00024002C40D0B3
:105760002448006884423CD8234E3046056801E056
:105770002E462D686868A04202D228680028F7D11A
:105780001A48006885422CD0306800F10808286863
:1057900030606868001B102807D92F196868001B43
:1057A00078606C603846FFF757FF124968680968EF
:1057B000081A1049086008460068104909688842BC
:1057C00003D20C4800680D490860094968680968F7
:1057D000084368600020286009480068401C0849A8
:1057E000086002F0D7FE4046BDE8F081B00000201E
:1057F000C4000020B4000020A8000020B800002051
:10580000BC000020001F4FF080730360001F21F0D8
:1058100001030360001F034B03601438026020384B
:1058200070470000F156000801B1096801600020CE
:10583000704701B109684160002070472DE9F047C9
:105840004768804600263889FFF78EFBDFF850A0B6
:1058500000F0FF090025DAF800401CE0217C4945F2
:1058600016D1D4F814C0BCF1000F11D007F10C030D
:1058700042462146A069E04750B14FF0000801269A
:1058800035B1E068E860DAF80010E160CAF800407D
:105890002546E4680EB9002CE0D13046BDE8F0871B
:1058A0002801002070B505460020FFF7C5FA040066
:1058B00009D01C21FAF705FF25748020E072034807
:1058C0000168E1600460204670BD000028010020EE
:1058D000C0E905127047021DAFF300802DE9FE43B9
:1058E0000E460446904614213046FFF761FC4FF007
:1058F000FF3750B1002211460120FFF737FB0500AA
:105900000AD03146FFF7D8FB09E035466FF01301A6
:105910003046FFF74DFC10B13846BDE8FE834046E7
:10592000FEF7DCFFA8B1E4B12168D1B12146227CA9
:10593000A37ACDE900320290E37A42462846FEF788
:10594000B9FD0446B54202D02846FFF70FFC2046B9
:10595000E3E7B54202D02846FFF708FC6FF00300EA
:10596000DBE7011DE3E7000003494FF00042086850
:105970000260C06808607047D400002000244FF423
:10598000FA7410E008A0FAF7EDFC01210A48FBF7D1
:10599000B2FC204602F02EFC01210748FBF7A9FCCF
:1059A000204602F027FCEDE77461736B3120656ED1
:1059B0007472790D0A00000000080140002400BF45
:1059C00009E0FDF74FFAFDF77DFB08B1FCF7E2FDBA
:1059D000204602F00FFCF4E72DE9FF5F0446007C4F
:1059E0008B460A283BD0D4F85CA0D4F82490ACB302
:1059F00020680390201D00D060680290268B278CC1
:105A00002046D4F81480D4F89850FBF7D3FC2146F4
:105A1000194801F06FF8E06F08B101F0CDFEA06FFA
:105A200008B101F0C9FED4F8800008B101F0C4FE4D
:105A300021460220FFF7C8F91DB16FF0040140466E
:105A4000A847BBF1000F07D002AB03AA4946504656
:105A5000CDE9006701F034FEBDE8FF9F09E006488C
:105A60002146001D01F046F821460220FFF7ACF95F
:105A7000F2E70020BDE70000400100202DE9F041E1
:105A800007460220FFF7D8F93E4C3F4D06003DD1B6
:105A9000287C8008C00773D000231A46A668A06936
:105AA00006E0416B711A994201D30B460246C06869
:105AB0000028F6D11AB101211046FFF78DFF022010
:105AC000FFF7BAF9060021D17F1E07F0FF0C7F27F0
:105AD0003046D4F808E062690DE0517C614509D890
